{
  "contractName": "AwardDegree",
  "abi": [
    {
      "inputs": [],
      "payable": false,
      "stateMutability": "nonpayable",
      "type": "constructor"
    },
    {
      "anonymous": false,
      "inputs": [
        {
          "indexed": false,
          "name": "enrollmentNum",
          "type": "uint256"
        }
      ],
      "name": "degreeAwarded",
      "type": "event"
    },
    {
      "anonymous": false,
      "inputs": [
        {
          "indexed": false,
          "name": "isVerfied",
          "type": "bool"
        }
      ],
      "name": "degreeVerifiedorNot",
      "type": "event"
    },
    {
      "anonymous": false,
      "inputs": [
        {
          "indexed": false,
          "name": "enrollmentNum",
          "type": "uint256"
        },
        {
          "indexed": false,
          "name": "reason",
          "type": "uint8"
        }
      ],
      "name": "degreeRevoked",
      "type": "event"
    },
    {
      "constant": false,
      "inputs": [
        {
          "name": "_enrollmentNum",
          "type": "uint256"
        },
        {
          "name": "_name",
          "type": "string"
        },
        {
          "name": "_cgpa",
          "type": "uint256"
        },
        {
          "name": "_batch",
          "type": "string"
        },
        {
          "name": "shaHash",
          "type": "string"
        }
      ],
      "name": "awardDegree",
      "outputs": [],
      "payable": false,
      "stateMutability": "nonpayable",
      "type": "function"
    },
    {
      "constant": true,
      "inputs": [
        {
          "name": "_enrollmentNum",
          "type": "uint256"
        }
      ],
      "name": "fetchHash",
      "outputs": [
        {
          "name": "hash",
          "type": "string"
        }
      ],
      "payable": false,
      "stateMutability": "view",
      "type": "function"
    },
    {
      "constant": true,
      "inputs": [
        {
          "name": "_enrollmentNum",
          "type": "uint256"
        }
      ],
      "name": "revokeStatus",
      "outputs": [
        {
          "name": "status",
          "type": "bool"
        }
      ],
      "payable": false,
      "stateMutability": "view",
      "type": "function"
    },
    {
      "constant": false,
      "inputs": [
        {
          "name": "_enrollmentNum",
          "type": "uint256"
        }
      ],
      "name": "revokeDegree",
      "outputs": [],
      "payable": false,
      "stateMutability": "nonpayable",
      "type": "function"
    }
  ],
  "bytecode": "0x608060405234801561001057600080fd5b50336000806101000a81548173ffffffffffffffffffffffffffffffffffffffff021916908373ffffffffffffffffffffffffffffffffffffffff1602179055506106bd806100606000396000f300608060405260043610610062576000357c0100000000000000000000000000000000000000000000000000000000900463ffffffff1680634851cea51461006757806391742dec14610094578063d2b1a54c1461019d578063f25b278b146101e2575b600080fd5b34801561007357600080fd5b5061009260048036038101908080359060200190929190505050610288565b005b3480156100a057600080fd5b5061019b60048036038101908080359060200190929190803590602001908201803590602001908080601f016020809104026020016040519081016040528093929190818152602001838380828437820191505050505050919291929080359060200190929190803590602001908201803590602001908080601f0160208091040260200160405190810160405280939291908181526020018383808284378201915050505050509192919290803590602001908201803590602001908080601f01602080910402602001604051908101604052809392919081815260200183838082843782019150505050505091929192905050506103bc565b005b3480156101a957600080fd5b506101c860048036038101908080359060200190929190505050610507565b604051808215151515815260200191505060405180910390f35b3480156101ee57600080fd5b5061020d60048036038101908080359060200190929190505050610534565b6040518080602001828103825283818151815260200191508051906020019080838360005b8381101561024d578082015181840152602081019050610232565b50505050905090810190601f16801561027a5780820380516001836020036101000a031916815260200191505b509250505060405180910390f35b3373ffffffffffffffffffffffffffffffffffffffff166000809054906101000a900473ffffffffffffffffffffffffffffffffffffffff1673ffffffffffffffffffffffffffffffffffffffff161415156102e357600080fd5b600180600083815260200190815260200160002060050160006101000a81548160ff02191690831515021790555060026001600083815260200190815260200160002060050160016101000a81548160ff0219169083600381111561034457fe5b02179055507fc3b3266703a9aa88072231a73b5b2e24c54d561bc880701286987b2d538b61e2816001600084815260200190815260200160002060050160019054906101000a900460ff16604051808381526020018260038111156103a557fe5b60ff1681526020019250505060405180910390a150565b60e060405190810160405280868152602001858152602001848152602001838152602001828152602001600015158152602001600060038111156103fc57fe5b815250600160008781526020019081526020016000206000820151816000015560208201518160010190805190602001906104389291906105ec565b5060408201518160020155606082015181600301908051906020019061045f9291906105ec565b50608082015181600401908051906020019061047c9291906105ec565b5060a08201518160050160006101000a81548160ff02191690831515021790555060c08201518160050160016101000a81548160ff021916908360038111156104c157fe5b02179055509050507fcf28d59ddb073c741cd109f0ebcc713290efef5a3bbf9ab780d697c447b01ae7856040518082815260200191505060405180910390a15050505050565b60006001600083815260200190815260200160002060050160009054906101000a900460ff169050919050565b6060600160008381526020019081526020016000206004018054600181600116156101000203166002900480601f0160208091040260200160405190810160405280929190818152602001828054600181600116156101000203166002900480156105e05780601f106105b5576101008083540402835291602001916105e0565b820191906000526020600020905b8154815290600101906020018083116105c357829003601f168201915b50505050509050919050565b828054600181600116156101000203166002900490600052602060002090601f016020900481019282601f1061062d57805160ff191683800117855561065b565b8280016001018555821561065b579182015b8281111561065a57825182559160200191906001019061063f565b5b509050610668919061066c565b5090565b61068e91905b8082111561068a576000816000905550600101610672565b5090565b905600a165627a7a72305820b59ecc6e5abe12cb3ac75b536362ed9c90d67b7425b2a063bcf469c32fc3f1000029",
  "source": "pragma solidity >=0.4.22 <0.6.0;\n\ncontract AwardDegree{\n    \n    address owner;\n    \n    constructor() public {\n        owner = msg.sender;\n    }\n    \n    event degreeAwarded(uint enrollmentNum);\n    event degreeVerifiedorNot(bool isVerfied);\n    event degreeRevoked(uint enrollmentNum,revokedReason reason);\n    enum revokedReason{\n        Null,\n        CriminalCase,\n        Fraud,\n        Other\n        \n    }\n    struct Degree{\n        \n        uint enrollmentNum;\n        string name;\n        uint cgpa;\n        string batch;\n        string shaHash;\n        bool isRevoked;\n        revokedReason revokeReason;\n    }\n    \n\n    mapping(uint=> Degree) enrollToDegree;\n    \n    function awardDegree(uint _enrollmentNum, string memory _name, uint _cgpa, string memory _batch,string memory shaHash) public\n    {\n        enrollToDegree[_enrollmentNum] = Degree(_enrollmentNum, _name, _cgpa, _batch, shaHash, false,revokedReason.Null);\n        emit degreeAwarded(_enrollmentNum);\n    }\n    \n    function fetchHash(uint _enrollmentNum) view public returns(string memory hash)\n    {\n       hash =  enrollToDegree[_enrollmentNum].shaHash;\n        \n    }\n    function revokeStatus(uint _enrollmentNum) view public returns(bool status)\n    {\n        status  = enrollToDegree[_enrollmentNum].isRevoked;\n    }\n    function revokeDegree(uint _enrollmentNum) public\n    {\n        require(owner==msg.sender);\n        enrollToDegree[_enrollmentNum].isRevoked = true;\n        enrollToDegree[_enrollmentNum].revokeReason = revokedReason.Fraud;\n        \n        emit degreeRevoked(_enrollmentNum,  enrollToDegree[_enrollmentNum].revokeReason);\n    }\n    \n    \n    \n    \n}",
  "sourcePath": "/home/mukul/Videos/OneStopVerification/contracts/AwardDegree.sol",
  "compiler": {
    "name": "solc",
    "version": "0.4.24+commit.e67f0147.Emscripten.clang"
  },
  "schemaVersion": "2.0.1",
  "updatedAt": "2018-12-16T07:18:10.707Z"
}