{
  "contractName": "AwardDegree",
  "abi": [
    {
      "constant": false,
      "inputs": [],
      "name": "unpause",
      "outputs": [],
      "payable": false,
      "stateMutability": "nonpayable",
      "type": "function"
    },
    {
      "constant": true,
      "inputs": [],
      "name": "paused",
      "outputs": [
        {
          "name": "",
          "type": "bool"
        }
      ],
      "payable": false,
      "stateMutability": "view",
      "type": "function"
    },
    {
      "constant": false,
      "inputs": [],
      "name": "acceptOwnership",
      "outputs": [],
      "payable": false,
      "stateMutability": "nonpayable",
      "type": "function"
    },
    {
      "constant": false,
      "inputs": [],
      "name": "pause",
      "outputs": [],
      "payable": false,
      "stateMutability": "nonpayable",
      "type": "function"
    },
    {
      "constant": true,
      "inputs": [],
      "name": "owner",
      "outputs": [
        {
          "name": "",
          "type": "address"
        }
      ],
      "payable": false,
      "stateMutability": "view",
      "type": "function"
    },
    {
      "constant": true,
      "inputs": [],
      "name": "newOwner",
      "outputs": [
        {
          "name": "",
          "type": "address"
        }
      ],
      "payable": false,
      "stateMutability": "view",
      "type": "function"
    },
    {
      "constant": false,
      "inputs": [
        {
          "name": "_newOwner",
          "type": "address"
        }
      ],
      "name": "transferOwnership",
      "outputs": [],
      "payable": false,
      "stateMutability": "nonpayable",
      "type": "function"
    },
    {
      "inputs": [],
      "payable": false,
      "stateMutability": "nonpayable",
      "type": "constructor"
    },
    {
      "anonymous": false,
      "inputs": [
        {
          "indexed": false,
          "name": "enrollmentNum",
          "type": "string"
        }
      ],
      "name": "degreeAwarded",
      "type": "event"
    },
    {
      "anonymous": false,
      "inputs": [
        {
          "indexed": false,
          "name": "enrollmentNum",
          "type": "string"
        },
        {
          "indexed": false,
          "name": "reason",
          "type": "uint8"
        }
      ],
      "name": "degreeRevoked",
      "type": "event"
    },
    {
      "anonymous": false,
      "inputs": [],
      "name": "Pause",
      "type": "event"
    },
    {
      "anonymous": false,
      "inputs": [],
      "name": "Unpause",
      "type": "event"
    },
    {
      "anonymous": false,
      "inputs": [
        {
          "indexed": true,
          "name": "from",
          "type": "address"
        },
        {
          "indexed": true,
          "name": "_to",
          "type": "address"
        }
      ],
      "name": "OwnershipTransferred",
      "type": "event"
    },
    {
      "constant": false,
      "inputs": [
        {
          "name": "_enrollmentNum",
          "type": "string"
        },
        {
          "name": "_ipfsHash",
          "type": "string"
        },
        {
          "name": "_shaHash",
          "type": "string"
        }
      ],
      "name": "awardDegree",
      "outputs": [],
      "payable": false,
      "stateMutability": "nonpayable",
      "type": "function"
    },
    {
      "constant": true,
      "inputs": [
        {
          "name": "_enrollmentNum",
          "type": "string"
        }
      ],
      "name": "isDegree",
      "outputs": [
        {
          "name": "",
          "type": "bool"
        }
      ],
      "payable": false,
      "stateMutability": "view",
      "type": "function"
    },
    {
      "constant": true,
      "inputs": [
        {
          "name": "_enrollNum",
          "type": "string"
        }
      ],
      "name": "fetchIpfsHash",
      "outputs": [
        {
          "name": "",
          "type": "string"
        }
      ],
      "payable": false,
      "stateMutability": "view",
      "type": "function"
    },
    {
      "constant": true,
      "inputs": [
        {
          "name": "_enrollNum",
          "type": "string"
        }
      ],
      "name": "fetchShaHash",
      "outputs": [
        {
          "name": "",
          "type": "string"
        }
      ],
      "payable": false,
      "stateMutability": "view",
      "type": "function"
    },
    {
      "constant": true,
      "inputs": [
        {
          "name": "_enrollmentNum",
          "type": "string"
        }
      ],
      "name": "revokedStatus",
      "outputs": [
        {
          "name": "status",
          "type": "bool"
        },
        {
          "name": "_revokedReason",
          "type": "uint8"
        }
      ],
      "payable": false,
      "stateMutability": "view",
      "type": "function"
    },
    {
      "constant": false,
      "inputs": [
        {
          "name": "_enrollmentNum",
          "type": "string"
        },
        {
          "name": "_reason",
          "type": "uint8"
        }
      ],
      "name": "revokeDegree",
      "outputs": [],
      "payable": false,
      "stateMutability": "nonpayable",
      "type": "function"
    }
  ],
  "bytecode": "0x60806040526000600160146101000a81548160ff02191690831515021790555034801561002b57600080fd5b5033806000806101000a81548173ffffffffffffffffffffffffffffffffffffffff021916908373ffffffffffffffffffffffffffffffffffffffff1602179055505061146b8061007d6000396000f3006080604052600436106100c5576000357c0100000000000000000000000000000000000000000000000000000000900463ffffffff16806312285025146100ca57806321cdf5f31461014b5780633f368bc5146101935780633f4ba83a146102475780635c975abb1461025e57806379ba50971461028d5780638456cb59146102a45780638da5cb5b146102bb578063bb138bf614610312578063d4ee1d90146103a0578063d6fa8b96146103f7578063f00ac5e1146104ab578063f2fde38b14610516575b600080fd5b3480156100d657600080fd5b50610131600480360381019080803590602001908201803590602001908080601f0160208091040260200160405190810160405280939291908181526020018383808284378201915050505050509192919290505050610559565b604051808215151515815260200191505060405180910390f35b34801561015757600080fd5b50610191600480360381019080803590602001908201803590602001919091929391929390803560ff1690602001909291905050506105de565b005b34801561019f57600080fd5b506101cc6004803603810190808035906020019082018035906020019190919293919293905050506107d4565b6040518080602001828103825283818151815260200191508051906020019080838360005b8381101561020c5780820151818401526020810190506101f1565b50505050905090810190601f1680156102395780820380516001836020036101000a031916815260200191505b509250505060405180910390f35b34801561025357600080fd5b5061025c6109c3565b005b34801561026a57600080fd5b50610273610a82565b604051808215151515815260200191505060405180910390f35b34801561029957600080fd5b506102a2610a95565b005b3480156102b057600080fd5b506102b9610c34565b005b3480156102c757600080fd5b506102d0610cf3565b604051808273ffffffffffffffffffffffffffffffffffffffff1673ffffffffffffffffffffffffffffffffffffffff16815260200191505060405180910390f35b34801561031e57600080fd5b50610379600480360381019080803590602001908201803590602001908080601f0160208091040260200160405190810160405280939291908181526020018383808284378201915050505050509192919290505050610d18565b60405180831515151581526020018260ff1660ff1681526020019250505060405180910390f35b3480156103ac57600080fd5b506103b5610e3b565b604051808273ffffffffffffffffffffffffffffffffffffffff1673ffffffffffffffffffffffffffffffffffffffff16815260200191505060405180910390f35b34801561040357600080fd5b50610430600480360381019080803590602001908201803590602001919091929391929390505050610e61565b6040518080602001828103825283818151815260200191508051906020019080838360005b83811015610470578082015181840152602081019050610455565b50505050905090810190601f16801561049d5780820380516001836020036101000a031916815260200191505b509250505060405180910390f35b3480156104b757600080fd5b50610514600480360381019080803590602001908201803590602001919091929391929390803590602001908201803590602001919091929391929390803590602001908201803590602001919091929391929390505050611050565b005b34801561052257600080fd5b50610557600480360381019080803573ffffffffffffffffffffffffffffffffffffffff1690602001909291905050506112bf565b005b60006002826040518082805190602001908083835b602083101515610593578051825260208201915060208101905060208303925061056e565b6001836020036101000a038019825116818451168082178552505050505050905001915050908152602001604051809103902060020160019054906101000a900460ff169050919050565b600160149054906101000a900460ff161515156105fa57600080fd5b6000809054906101000a900473ffffffffffffffffffffffffffffffffffffffff1673ffffffffffffffffffffffffffffffffffffffff163373ffffffffffffffffffffffffffffffffffffffff1614151561065557600080fd5b61069083838080601f016020809104026020016040519081016040528093929190818152602001838380828437820191505050505050610559565b151561069b57600080fd5b60016002848460405180838380828437820191505092505050908152602001604051809103902060020160006101000a81548160ff0219169083151502179055508060ff1660038111156106eb57fe5b6002848460405180838380828437820191505092505050908152602001604051809103902060020160026101000a81548160ff0219169083600381111561072e57fe5b02179055507f95648ff7d427c39ac8d39fab556b32b6eb7bbe6d779a86e748c99ce09f11023583836002868660405180838380828437820191505092505050908152602001604051809103902060020160029054906101000a900460ff1660405180806020018360038111156107a057fe5b60ff1681526020018281038252858582818152602001925080828437820191505094505050505060405180910390a1505050565b6060600160149054906101000a900460ff161515156107f257600080fd5b6000838390501415801561083d575061083c83838080601f016020809104026020016040519081016040528093929190818152602001838380828437820191505050505050610559565b5b151561084857600080fd5b600115156002848460405180838380828437820191505092505050908152602001604051809103902060020160009054906101000a900460ff161515141515156108fa576040517f08c379a00000000000000000000000000000000000000000000000000000000081526004018080602001828103825260198152602001807f44656772656520697320616c7265616479207265766f6b65640000000000000081525060200191505060405180910390fd5b600283836040518083838082843782019150509250505090815260200160405180910390206001018054600181600116156101000203166002900480601f0160208091040260200160405190810160405280929190818152602001828054600181600116156101000203166002900480156109b65780601f1061098b576101008083540402835291602001916109b6565b820191906000526020600020905b81548152906001019060200180831161099957829003601f168201915b5050505050905092915050565b6000809054906101000a900473ffffffffffffffffffffffffffffffffffffffff1673ffffffffffffffffffffffffffffffffffffffff163373ffffffffffffffffffffffffffffffffffffffff16141515610a1e57600080fd5b600160149054906101000a900460ff161515610a3957600080fd5b6000600160146101000a81548160ff0219169083151502179055507f7805862f689e2f13df9f062ff482ad3ad112aca9e0847911ed832e158c525b3360405160405180910390a1565b600160149054906101000a900460ff1681565b600160009054906101000a900473ffffffffffffffffffffffffffffffffffffffff1673ffffffffffffffffffffffffffffffffffffffff163373ffffffffffffffffffffffffffffffffffffffff16141515610af157600080fd5b600160009054906101000a900473ffffffffffffffffffffffffffffffffffffffff1673ffffffffffffffffffffffffffffffffffffffff166000809054906101000a900473ffffffffffffffffffffffffffffffffffffffff1673ffffffffffffffffffffffffffffffffffffffff167f8be0079c531659141344cd1fd0a4f28419497f9722a3daafe3b4186f6b6457e060405160405180910390a3600160009054906101000a900473ffffffffffffffffffffffffffffffffffffffff166000806101000a81548173ffffffffffffffffffffffffffffffffffffffff021916908373ffffffffffffffffffffffffffffffffffffffff1602179055506000600160006101000a81548173ffffffffffffffffffffffffffffffffffffffff021916908373ffffffffffffffffffffffffffffffffffffffff160217905550565b6000809054906101000a900473ffffffffffffffffffffffffffffffffffffffff1673ffffffffffffffffffffffffffffffffffffffff163373ffffffffffffffffffffffffffffffffffffffff16141515610c8f57600080fd5b600160149054906101000a900460ff16151515610cab57600080fd5b60018060146101000a81548160ff0219169083151502179055507f6985a02210a168e66602d3235cb6db0e70f92b3ba4d376a33c0f3d9434bff62560405160405180910390a1565b6000809054906101000a900473ffffffffffffffffffffffffffffffffffffffff1681565b600080610d2483610559565b1515610d2f57600080fd5b6002836040518082805190602001908083835b602083101515610d675780518252602082019150602081019050602083039250610d42565b6001836020036101000a038019825116818451168082178552505050505050905001915050908152602001604051809103902060020160009054906101000a900460ff1691506002836040518082805190602001908083835b602083101515610de55780518252602082019150602081019050602083039250610dc0565b6001836020036101000a038019825116818451168082178552505050505050905001915050908152602001604051809103902060020160029054906101000a900460ff166003811115610e3457fe5b9050915091565b600160009054906101000a900473ffffffffffffffffffffffffffffffffffffffff1681565b6060600160149054906101000a900460ff16151515610e7f57600080fd5b60008383905014158015610eca5750610ec983838080601f016020809104026020016040519081016040528093929190818152602001838380828437820191505050505050610559565b5b1515610ed557600080fd5b600115156002848460405180838380828437820191505092505050908152602001604051809103902060020160009054906101000a900460ff16151514151515610f87576040517f08c379a00000000000000000000000000000000000000000000000000000000081526004018080602001828103825260198152602001807f44656772656520697320616c7265616479207265766f6b65640000000000000081525060200191505060405180910390fd5b600283836040518083838082843782019150509250505090815260200160405180910390206000018054600181600116156101000203166002900480601f0160208091040260200160405190810160405280929190818152602001828054600181600116156101000203166002900480156110435780601f1061101857610100808354040283529160200191611043565b820191906000526020600020905b81548152906001019060200180831161102657829003601f168201915b5050505050905092915050565b6000809054906101000a900473ffffffffffffffffffffffffffffffffffffffff1673ffffffffffffffffffffffffffffffffffffffff163373ffffffffffffffffffffffffffffffffffffffff161415156110ab57600080fd5b600160149054906101000a900460ff161515156110c757600080fd5b600086869050141515156110da57600080fd5b600084849050141580156110f2575060008282905014155b15156110fd57600080fd5b60a06040519081016040528085858080601f016020809104026020016040519081016040528093929190818152602001838380828437820191505050505050815260200183838080601f01602080910402602001604051908101604052809392919081815260200183838082843782019150505050505081526020016000151581526020016001151581526020016000600381111561119857fe5b8152506002878760405180838380828437820191505092505050908152602001604051809103902060008201518160000190805190602001906111dc92919061139a565b5060208201518160010190805190602001906111f992919061139a565b5060408201518160020160006101000a81548160ff02191690831515021790555060608201518160020160016101000a81548160ff02191690831515021790555060808201518160020160026101000a81548160ff0219169083600381111561125e57fe5b02179055509050507f1cf94eae7f6092d30357ebf433647118e2da39bbb3020265da16c4a4eb0c1fa28686604051808060200182810382528484828181526020019250808284378201915050935050505060405180910390a1505050505050565b6000809054906101000a900473ffffffffffffffffffffffffffffffffffffffff1673ffffffffffffffffffffffffffffffffffffffff163373ffffffffffffffffffffffffffffffffffffffff1614151561131a57600080fd5b600073ffffffffffffffffffffffffffffffffffffffff168173ffffffffffffffffffffffffffffffffffffffff161415151561135657600080fd5b80600160006101000a81548173ffffffffffffffffffffffffffffffffffffffff021916908373ffffffffffffffffffffffffffffffffffffffff16021790555050565b828054600181600116156101000203166002900490600052602060002090601f016020900481019282601f106113db57805160ff1916838001178555611409565b82800160010185558215611409579182015b828111156114085782518255916020019190600101906113ed565b5b509050611416919061141a565b5090565b61143c91905b80821115611438576000816000905550600101611420565b5090565b905600a165627a7a72305820571f2399bd7b140a27553d96b73cc9a2f3aee8a24b073b7fff4be35a674e0c300029",
  "source": "pragma solidity 0.4.24;\n\nimport \"./Owned.sol\";\nimport \"./Pausable.sol\";\n\ncontract AwardDegree is Owned, Pausable{\n\n    mapping(string => Degree) private degreeMapping;\n    enum revokedReason{\n        Null,\n        CriminalCase,\n        Fraud,\n        Other\n        \n    }\n    struct Degree{\n        string ipfsHash;\n        string shaHash;\n        bool isRevoked;\n        bool isValue;\n        revokedReason revokeReason;\n    }\n    \n    event degreeAwarded(string enrollmentNum);\n    event degreeRevoked(string enrollmentNum,revokedReason reason);\n\n\n    constructor() public Owned(msg.sender) {\n    }\n    \n    \n    function awardDegree(string _enrollmentNum,string _ipfsHash, string _shaHash) external onlyOwner whenNotPaused\n    {\n        require(bytes(_enrollmentNum).length!=0);\n        require(bytes(_ipfsHash).length!=0 && bytes(_shaHash).length!=0);\n        degreeMapping[_enrollmentNum] = Degree(_ipfsHash,_shaHash, false,true,revokedReason.Null);\n        emit degreeAwarded(_enrollmentNum);\n    }\n    function isDegree(string _enrollmentNum) public view returns(bool)\n    {\n        return degreeMapping[_enrollmentNum].isValue;\n    }\n    function fetchIpfsHash(string _enrollNum) external view whenNotPaused returns(string) {\n        require(bytes(_enrollNum).length!=0 && isDegree(_enrollNum));\n        require(degreeMapping[_enrollNum].isRevoked!=true,\"Degree is already revoked\");\n        return degreeMapping[_enrollNum].ipfsHash;\n\n    }\n    function fetchShaHash(string _enrollNum) external view whenNotPaused returns(string) {\n        require(bytes(_enrollNum).length!=0 && isDegree(_enrollNum));\n        require(degreeMapping[_enrollNum].isRevoked!=true,\"Degree is already revoked\");\n        return degreeMapping[_enrollNum].shaHash;\n\n    }\n    function revokedStatus(string _enrollmentNum) public view returns(bool status,uint8 _revokedReason)\n    {\n        require(isDegree(_enrollmentNum));\n        status = degreeMapping[_enrollmentNum].isRevoked;\n        _revokedReason = uint8(degreeMapping[_enrollmentNum].revokeReason);\n    }\n    function revokeDegree(string _enrollmentNum,uint8 _reason) external whenNotPaused onlyOwner\n    {\n        require(isDegree(_enrollmentNum));\n        degreeMapping[_enrollmentNum].isRevoked = true;\n        degreeMapping[_enrollmentNum].revokeReason = revokedReason(_reason);\n        \n        emit degreeRevoked(_enrollmentNum, degreeMapping[_enrollmentNum].revokeReason);\n    }\n    \n}",
  "sourcePath": "/home/mukul/Consensys/OneStopVerification/contracts/AwardDegree.sol",
  "compiler": {
    "name": "solc",
    "version": "0.4.24+commit.e67f0147.Emscripten.clang"
  },
  "schemaVersion": "2.0.1",
  "updatedAt": "2019-01-24T05:07:17.700Z"
}